:020000040800F2
:1000000048130020E5030008ED030008EF03000893
:10001000F1030008F3030008F503000800000000E6
:10002000000000000000000000000000B502000811
:10003000F9030008000000006D030008D103000868
:10004000FF030008FF030008FF030008FF03000888
:10005000FF030008FF030008E9050008FF0300088C
:10006000FF030008FF030008FF030008FF03000868
:10007000FF030008FF030008FF030008FF03000858
:10008000FF030008FF030008FF030008FF03000848
:10009000FF030008FF030008FF030008FF03000838
:1000A000FF030008FF030008FF030008FF03000828
:1000B000FF030008FF030008FF030008FF03000818
:1000C000FF030008FF030008FF030008FF03000808
:1000D000FF030008FF030008FF030008FF030008F8
:1000E000FF030008FF030008FF030008FF030008E8
:1000F000FF030008FF030008FF030008FF030008D8
:10010000FF030008FF030008FF030008FF030008C7
:10011000FF030008FF030008FF030008FF030008B7
:10012000FF030008FF030008FF030008FF030008A7
:10013000FF030008FF030008FF030008FF03000897
:10014000FF030008FF030008FF030008FF03000887
:10015000FF030008FF030008FF030008FF03000877
:10016000FF030008FF030008FF030008FF03000867
:10017000FF030008FF030008FF0300080000000061
:10018000FF030008FF03000800F002F800F03CF84D
:100190000AA090E8000C82448344AAF10107DA45E2
:1001A00001D100F031F8AFF2090EBAE80F0013F0F8
:1001B000010F18BFFB1A43F0010318471C2B000066
:1001C0003C2B0000103A24BF78C878C1FAD85207F7
:1001D00024BF30C830C144BF04680C6070470000C1
:1001E0000023002400250026103A28BF78C1FBD840
:1001F000520728BF30C148BF0B6070471FB502F0DF
:1002000029FD1FBD10B510BD00F022F91146FFF702
:10021000F5FF0FB400F00CF80FBC01F033FB00F059
:1002200005F903B4FFF7EEFF03BC00F00BF9000083
:1002300004B001F03DFB0448002101F0B1FB01F0E6
:1002400049FB00F0F3F800002000002080F309884B
:100250007047EFF309807047684680F309880448C7
:100260000078C00714BF0220032080F31488704771
:10027000982C0008DFF818C0EFF305831B0618BFA1
:100280006047EFF31483DB0708BF604700DF704768
:100290008B1A0008DFF818C0EFF305831B0618BFA0
:1002A0006047EFF31483DB0708BF604700DF704748
:1002B0001D1D0008EFF30980816911F8021CE1BBE4
:1002C00090E80F1010B5E047BDE81040EFF3098C3F
:1002D0008CE80700214B93E80600914208BF704765
:1002E00041B91EF0100F16D11D49086820F0010019
:1002F000086010E01EF0100F06BF2CED108A0120E0
:10030000002081F825002CE9F00FC1F828C00CB4BA
:1003100002F0B8F80CBC1A60D2F828C0BCE8F00FA4
:1003200092F8250000280EBF6FF0020E6FF0120E3B
:10033000BCEC108A8CF30988704710B5094A126822
:10034000914209D8084C54F8214090E80F10A0477A
:10035000EFF3098C8CE80F0010BD00003C0000207A
:1003600034EF00E09C0400089C04000810B501F084
:100370004DFFBDE81040154B93E80600914208BFC1
:100380007047EFF3098C1EF0100F06BF2CED108A9A
:100390000120002081F825002CE9F00FC1F828C0C9
:1003A0000CB402F06FF80CBC1A60D2F828C0BCE89C
:1003B000F00F92F8250000280EBF6FF0020E6FF0CC
:1003C000120EBCEC108A8CF3098870473C000020A8
:1003D00010B502F01FF9CCE710B501F055FB02F0A3
:1003E00019F9C6E70948804709480047FEE7FEE7D4
:1003F000FEE7FEE7FEE7FEE7FEE7FEE7FEE7FEE7D5
:1004000004480549054A064B70470000A914000836
:1004100089010008480D002048130020480F0020E3
:10042000480F002000487047E40C002010B5044637
:10043000AFF300802046BDE81040FFF7F2BE7047E2
:100440007047704701491820ABBEFEE72600020046
:100450007546FFF7E7FFAE4605006946534620F0B4
:100460000700854618B020B5FFF7CAFFBDE8204059
:100470004FF000064FF000074FF000084FF0000B60
:1004800021F00701AC46ACE8C009ACE8C009ACE813
:10049000C009ACE8C0098D467047704700000000F5
:1004A0000EB5002401214B48006801F055FA8FE099
:1004B0004FF0FF31012001F067FA8DE807000121BC
:1004C0004448006801F054FA30E04FF4804042495B
:1004D000086006E0601C84B2C82C02DD00203F49A1
:1004E00008703F4800693D490978012900D100E0C2
:1004F000002108400028EDD13948006980F0010052
:100500003649097809B9012100E00021084068B1A5
:10051000002400F053FE01213248006801F028FA5F
:10052000611E012001F030FA8DE807004FF0804095
:10053000006900F001000028C7D04FF0804000693A
:1005400020F001004FF08041086130E04FF0804022
:100550002149086006E0601C84B2C82C02DD00203E
:100560001E4908701E4800691C490978012900D1FC
:1005700000E0002108400028EDD11948006980F012
:1005800001001649097809B9012100E0002108405D
:1005900068B1002400F012FE01211248006801F049
:1005A000E7F9611E012001F0EFF98DE807004FF037
:1005B0008040006900F001000028C7D04FF0804063
:1005C000006920F001004FF08041086101F00CFA51
:1005D0006EE7000004000020180C02400800002014
:1005E00000000240000000202DE9F8434FF0010810
:1005F0004FF47A79A92000904FF400204A4988618D
:100600004B4642466946494800F059FB002000909D
:100610004B4642466946454800F03FFA08204249A9
:1006200088614248806B0678AB2000904FF4002030
:1006300088614B46424669463C4800F040FB00203A
:1006400000904B4642466946384800F026FA08209A
:10065000354988613548806B04783746254627F050
:10066000800725F08005782D1DDA0A2D1BDD04F0AA
:10067000800080280BD12E48006840F400402C49AF
:1006800008600846006840F00050086016E02848FE
:10069000006840F40050264908600846006840F0B1
:1006A000004008600AE02248006840F000502049FD
:1006B00008600846006840F000400860782F1DDAA6
:1006C0000A2F1BDD06F0800080280BD11848006837
:1006D00040F48050164908600846006840F08040A9
:1006E000086016E01248006840F480401049086035
:1006F0000846006840F0805008600AE00C48006836
:1007000040F080500A4908600846006840F0804088
:100710000860062000F016F90648006840F0020064
:1007200004490860BDE8F883001002405C00002026
:10073000180C0240143C0140F8B502460B46002557
:10074000002400200021DCE0012606FA01F51E68E5
:1007500006EA0504AC4273D15E68022E02D05E68E0
:10076000122E13D1CF0802F1200656F827004E07AB
:10077000F70E0F26BE40B0434F07FF0E1E69BE4066
:100780003043CF0802F1200646F8270010684F00DA
:100790000326BE40B0431E7906F003064F00BE405C
:1007A000304310605E68012E08D05E68022E05D0CE
:1007B0005E68112E02D05E68122E13D190684F0031
:1007C0000326BE40B0434F00DE68BE403043906019
:1007D000506801268E40B0431E79C6F300168E4045
:1007E00030435060D0684F000326BE40B0434F00F6
:1007F0009E68BE403043D0605E6806F08056B6F119
:10080000805F7DD100BF00260096404E366846F4DA
:1008100080463E4F3E603E46366806F4804600966F
:1008200000BF00BF3A4E8F0856F827008E07370FDB
:100830000F26BE40B043374EB24202D1002624E01C
:100840005EE0354EB24201D101261EE0334EB24287
:1008500001D1022619E0324EB24201D1032614E042
:10086000304EB24201D104260FE02F4EB24201D1E8
:1008700005260AE02D4EB24201D1062605E02C4E97
:10088000B24201D1072600E008268F073F0FBE4085
:1008900030431F4E8F0846F82700264E3068A0438D
:1008A0005E6806F48036B6F5803F00D12043214EC5
:1008B0003060361D3068A0435E6806F40036B6F539
:1008C000003F00D120431B4E361D3060361D30687E
:1008D000A0435E6806F48016B6F5801F00D1204361
:1008E000144E08363060361D3068A0435E6806F44A
:1008F0000016B6F5001F00D120430E4E0C363060B6
:10090000491C1029FFF420AFF8BD00004438024014
:100910000838014000000240000402400008024084
:10092000000C024000100240001402400018024077
:10093000001C0240003C0140014800687047000074
:100940003000002000BF00F01F0201219140034A47
:10095000430942F8231000BF7047000080E200E026
:1009600000BF00F01F0201219140034A430942F8F1
:10097000231000BF7047000080E100E02DE9F05F28
:1009800080460D461646002700F008FD074639460A
:100990002A46334601F00700C0F1070ABAF1040FF6
:1009A00002D94FF0040A01E0C0F1070AD14600F174
:1009B000040ABAF1070F02D24FF0000A01E0A0F1D9
:1009C000030AD4464FF0010A0AFA09FAAAF1010A09
:1009D0000AEA020A0AFA0CFA4FF0010B0BFA0CFBB6
:1009E000ABF1010B0BEA030B4AEA0B04214640462C
:1009F00000F0DCFCBDE8F09F10B504460CB9012006
:100A000010BD606A00B900BFA06AB0F5005F00D1F8
:100A100000BF94F8510028B9002084F85000204607
:100A200000F03AF8022084F851002068006820F0B5
:100A3000400021680860D4E901010843E1680843E7
:100A40002169084361690843218B01F4007108435F
:100A5000E1690843216A0843A16A084321680860E4
:100A60000421A06901EA1040616A084321684860D6
:100A7000A06AB0F5005F02D12168E06A08612068D1
:100A8000C06920F400602168C86100206065012011
:100A900084F851000020B3E770472DE9FC47044675
:100AA0000D4617461E46002001908046814660682C
:100AB000B0F5827F0DD1A06858B9042084F85100A8
:100AC0003B462A4629462046009600F0E8F9BDE854
:100AD000FC8700BF94F85000012801D10220F6E7FE
:100AE000012084F8500000BFFFF726FF804694F8ED
:100AF0005100012802D04FF00209D6E005B117B924
:100B00004FF00109D1E0042084F851000020606515
:100B1000A563A787E7872063A086E08620646064DA
:100B2000A06AB0F5005F11D100BF206800684DF6E3
:100B3000FF710840216808602068006840F4005098
:100B40002168086000BFE08F401EE087A068B0F514
:100B5000004F05D12068006820F4804021680860BB
:100B60002068006800F04000402805D02068006838
:100B700040F0400021680860E068E8B918E02068AB
:100B8000806800F0010038B12068007B28706D1C7F
:100B9000E08F401EE0870BE03EB1701C40B1FFF7D4
:100BA000CBFEA0EB0800B04202D34FF003097CE07B
:100BB000E08F0028E3D11CE018E02068806800F096
:100BC000010038B12068C0682880AD1CE08F401E4D
:100BD000E0870BE03EB1701C40B1FFF7ADFEA0EB2B
:100BE0000800B04202D34FF003095EE0E08F002816
:100BF000E3D1A06AB0F5005F32D12068006840F40C
:100C00008050216808603346012211462046CDF805
:100C1000008000F0F3FB10B14FF0030945E0E068FD
:100C2000B0F5006F03D12068C068288002E020681A
:100C3000007B28703346012211462046CDF8008003
:100C400000F0DCFB30B1606D40F0020060654FF0F9
:100C500003092AE02068C06880B20190BDF8040052
:100C60006068B0F5827F0DD1A068B0F5004F03D069
:100C7000A068B0F5806F05D12068006820F04000C2
:100C8000216808602068806800F01000102807D1F3
:100C9000606D40F0020060654FF6EF70216888607B
:100CA000606D08B14FF0010900BF012084F85100C8
:100CB00000BF002084F8500000BF484607E72DE938
:100CC000F84304460D4617461E464FF00008C1463D
:100CD00000BF94F85000012802D10220BDE8F8833B
:100CE000012084F8500000BFFFF726FE804694F8EC
:100CF0005100012802D04FF00209C6E005B117B932
:100D00004FF00109C1E0032084F851000020606524
:100D10002563A786E786A063A087E08760642064D8
:100D2000A068B0F5004F05D12068006840F480400D
:100D300021680860A06AB0F5005F0ED100BF20688E
:100D400000684DF6FF71084021680860206800685F
:100D500040F400502168086000BF2068006800F07F
:100D60004000402805D02068006840F0400021681D
:100D70000860E068B0F5006F2AD1606810B1E08EBD
:100D8000012806D128882168C860AD1CE08E401E6D
:100D9000E08619E02068806800F00200022807D190
:100DA00028882168C860AD1CE08E401EE0860BE0FC
:100DB0003EB1701C40B1FFF7BFFDA0EB0800B04290
:100DC00002D34FF0030960E0E08E0028E2D129E071
:100DD000606810B1E08E012806D128782168087378
:100DE0006D1CE08E401EE08619E02068806800F0EF
:100DF0000200022807D12878216808736D1CE08E54
:100E0000401EE0860BE03EB1701C40B1FFF794FD40
:100E1000A0EB0800B04202D34FF0030935E0E08EAA
:100E20000028E2D13346012202212046CDF800807D
:100E300000F0E4FA10B14FF0030926E042463146D3
:100E4000204600F0C7FA20B14FF00109202060656C
:100E50001BE0A06850B900BF002000902068C06867
:100E6000009020688068009000BF00BFA06AB0F5C5
:100E7000005F05D12068006840F480502168086058
:100E8000606D08B14FF0010900BF012084F85100E6
:100E900000BF002084F8500000BF48461EE72DE93F
:100EA000FF5F04460D4616461F46DDF838804FF0BA
:100EB000000A00200390029081464FF0010B019040
:100EC00000BF94F85000012803D1022004B0BDE80F
:100ED000F09F012084F8500000BFFFF72DFD8146F0
:100EE00094F851A060680390BAF1010F0BD00398F9
:100EF000B0F5827F04D1A06810B9BAF1040F02D016
:100F00000220019027E10DB106B117B9012001902F
:100F100021E194F85100012802D1052084F8510004
:100F200000206065A663E787A7872563E786A78615
:100F300020646064A06AB0F5005F0ED100BF206835
:100F400000684DF6FF71084021680860206800685D
:100F500040F400502168086000BF2068006800F07D
:100F60004000402805D02068006840F0400021681B
:100F70000860E068B0F5006F4FD1606810B1E08E96
:100F8000012806D128882168C860AD1CE08E401E6B
:100F9000E0863BE0BBF1000F1CD0E08ED0B12068B2
:100FA000806800F00200022814D128882168C860F7
:100FB000AD1CE08E401EE0864FF0000BE08E48B97D
:100FC000A06AB0F5005F05D12068006840F4805049
:100FD00021680860E08F68B12068806800F0010037
:100FE00040B12068C0683080B61CE08F401EE087AA
:100FF0004FF0010B08F1010040B1FFF79DFCA0EBA1
:101000000900404502D303200190A4E0E08E0028AF
:10101000C0D1E08F0028BDD14EE0606810B1E08EF5
:10102000012806D12878216808736D1CE08E401EC7
:10103000E0863BE0BBF1000F1CD0E08ED0B1206811
:10104000806800F00200022814D115F8010B216815
:101050000873E08E401EE0864FF0000BE08E48B92A
:10106000A06AB0F5005F05D12068006840F48050A8
:1010700021680860E08F68B12068806800F0010096
:1010800040B12068C06806F8010BE08F401EE08781
:101090004FF0010B08F1010040B1FFF74DFCA0EB50
:1010A0000900404502D30320019054E0E08E00285F
:1010B000C0D1E08F0028BDD1A06AB0F5005F15D186
:1010C0004346012211462046CDF8009000F096F9E3
:1010D00030B1606D40F002006065032001903AE09D
:1010E0002068C06880B20290BDF80800206880685F
:1010F00000F01000102809D1606D40F0020060651A
:101100004FF6EF702168886001200190434601226C
:1011100002212046CDF8009000F070F910B10320B4
:10112000019018E04A464146204600F053F920B1AC
:1011300001200190202060650DE0A06850B900BF3B
:10114000002000902068C0680090206880680090AF
:1011500000BF00BF00BF012084F8510000BF002085
:1011600084F8500000BF0198B0E6000010B50021DF
:10117000064800F015FC064908600846006810B9EA
:101180004FF0FF3010BD0020FCE70000702C00087D
:101190000400002010B50021064800F001FC0649BB
:1011A00008600846006810B94FF0FF3010BD0020FD
:1011B000FCE70000602C00080000002010B50022B1
:1011C00011460620FFF7DAFB0620FFF7BBFB4020A5
:1011D0000149086010BD000000E100E020480068FF
:1011E00040F008001E4908601E48006840F080700A
:1011F0001C4908600846006840F0806008600846A6
:10120000006840F0805008600846006840F0804068
:1012100008601348006840F0010011490860104858
:101220001030006840F001000D49103108600806D8
:10123000006820F01600090608600846006820F0E3
:101240000800086042F2CF00886242F20F70C86264
:10125000012048618007006840F001000860704785
:1012600030380240000C024030B591B004460D46C3
:101270004448006840F4805042490860424843496D
:1012800008604FF4827048604FF400713F488161FC
:1012900000218160C16002210161012141610021C1
:1012A00001622021C161FFF7A7FB364814380068AE
:1012B00040F00100334914390860E0200B9005200C
:1012C0000F9002200C900E9000200D900BA930483A
:1012D000FFF732FA2B481438006840F01000294913
:1012E0001439086008200690012007900220099018
:1012F0000120089006A92748FFF71EFA0120019057
:10130000254802900220049001A92248FFF714FA10
:101310000820204988611D480068006840F04000AE
:101320001A490968086020201090800319498861D3
:101330002B46224610A91548FFF7C1FC1320109038
:101340002B46224610A91148FFF7B9FC0820114985
:101350008861232010904FF4002088612B4622469C
:1013600010A90A48FFF7ABFCC82010902B46224674
:1013700010A90648FFF7A3FC08200649886111B0B0
:1013800030BD000044380240003001405C000020C5
:1013900000000240001002400000111002480068E6
:1013A000C0F30220704700000CED00E010B50028EB
:1013B00007DA0A07140E054A00F00F031B1FD45466
:1013C00003E00A07130E024A135410BD18ED00E0A3
:1013D00000E400E0F8B504460D4616462B46002210
:1013E00080212046009600F009F828B1606D40F099
:1013F000200060650320F8BD0020FCE72DE9F041E6
:1014000004460E4617461D46DDF818803FE0681C6E
:10141000E0B32DB1FFF790FAA0EB0800A84236D355
:101420002068406820F0E000216848606068B0F5FE
:10143000827F0DD1A068B0F5004F03D0A068B0F551
:10144000806F05D12068006820F0400021680860A6
:10145000A06AB0F5005F0ED100BF206800684DF6AD
:10146000FF710840216808602068006840F400505F
:101470002168086000BF012084F8510000BF0020EF
:1014800084F8500000BF0320BDE8F081FFE720682A
:1014900080683040B04201D1012000E00020B84215
:1014A000B5D10020F0E700004F48006840F470001C
:1014B0004D4908604D48006840F001004B49086004
:1014C00000204A49083108604848006848490840F7
:1014D000464908604748091D0860081F006820F455
:1014E0008020091F0860002040490C3108603F48F7
:1014F000001D006847F6C07188433C49091D08601B
:101500000846006800F5A84008600846006820F416
:10151000403008600846006800F5803008600846E2
:10152000006820F03F000860084600680830086046
:10153000081F006840F48030091F086000BF2B4876
:10154000006800F400300028F9D0284840300068D6
:1015500040F080502549403108602748006840F439
:101560008040254908602148001D006840F4800043
:101570001E49091D0860081F006840F08070091F9F
:10158000086000BF1948006800F000700028F9D01A
:1015900040F205601949086014480830006820F0DE
:1015A00003001249083108600846006840F0020054
:1015B000086000BF0D480830006800F00C000828E3
:1015C000F8D10A480830006840F400400749083163
:1015D00008600846006840F4A05008600806024908
:1015E000803908607047000088ED00E00038024054
:1015F000FFFFF6FE1030002400700040003C024067
:101600000EB5002401212048006800F0B1F939E04E
:1016100006E0601C84B2C82C02DD01201B49087062
:101620001B4800691949097809B9012100E0002126
:1016300008400028EDD11648006980F001001349E8
:101640000978012900D100E000210840C0B1002440
:101650000620FFF785F94FF080500E4908604000E2
:101660000860400008604000086001210A480068E6
:1016700000F07EF9611E012000F086F98DE8070078
:1016800000F0B2F9C4E700000000002008000020CC
:1016900000000240180C02400400002010B5002A8F
:1016A00006DA22F00042D21D22F00703102203E0E6
:1016B000D21C22F003030C2213B19C188C4201D9D6
:1016C000012010BD024401448360C0E90021C91A11
:1016D000D018884202D810600246F9E70020106056
:1016E00010BD000005490978002905D000684FF6B3
:1016F000FF71DFF80CC000DF7047000035000020EC
:10170000A521000804490978002903D00068DFF802
:101710000CC000DF7047000035000020CD2000081D
:1017200008480068C0010BD507480068C00707D00B
:10173000054880380068002802DA04490120087052
:1017400070470000FCED00E0800E00E05800002033
:101750004FF06042D36F002BFCD0036BD367D36F85
:10176000002BFCD0C07840EA0120A2F87C00704732
:101770004FF06041CA6F002AFCD081F87C007047AE
:101780000EB5802200B109B110460AE001780129A6
:10179000FAD101A900F046F8042801D0002000E0A9
:1017A0001020DDE9011203B000BD70B50D46040044
:1017B00003D012B92078012801D0802070BD2046C6
:1017C00000F07EFB28B12946204600F054F80020A6
:1017D00070BD812070BD70B50C4600F03BFF4FF02E
:1017E000004108B1220C01D0084670BD058BC178BC
:1017F000A0B200F003F8284670BD00000A4601467A
:10180000074810B500EB820050F8040C002805D002
:1018100000F04AFDBDE8104000F036BD10BD0000EC
:101820002409002010B504468089002822D0608950
:1018300004EB8000006908606078022805D100216F
:10184000204600F031FD00F01FFD04F10C0000BF48
:10185000D0E85F1F491E8AB2C0E8512F0029F7D196
:101860006089401C80B26081E189884201D10020FA
:101870006081042010BD10B500F016FDBDE81040D9
:1018800000F002BD00F014F801244FF47A75FFF760
:10189000A5FC29462046FFF7E7FCFFF78FFCFFF782
:1018A00079FCFFF763FC00F015F800BFFEE70000CD
:1018B000EFF3058008B182207047EFF31480C00772
:1018C00003D0DFF80CC000DF704701F047B800001C
:1018D0005D29000888B0EFF3058010B1822008B0C0
:1018E0007047EFF3148010F00301134806D001296C
:1018F0001BD0022911D0032919D113E008A981F3C3
:1019000009880078C0070BD05FF0020080F31488CC
:10191000BFF34F8FBFF36F8F09E00078C00706D188
:101920000320F3E70078C00701D0FF20D7E7DFF8F6
:101930000CC000DFD3E70000982C0008CD29000878
:10194000EFF305820AB1FFF71BBFDFF808C000DF25
:1019500070470000392A0008EFF3058212B14FF0FA
:1019600000407047DFF804C000DF7047732A0008AA
:10197000EFF305820AB1FFF72EBFDFF808C000DFE2
:1019800070470000972A0008EFF305830BB182200F
:101990007047DFF808C000DF70470000BD2A00086C
:1019A000EFF305820AB100207047EFF31482064B73
:1019B00002F001025B781A4303D0DFF810C000DFA9
:1019C000704701F0A5B8000034000020112B00087A
:1019D000DFF80CC000DFDFF80CC000DFFEE700001E
:1019E000812B00089D2B0008EFF3058008B18220B1
:1019F0007047DFF808C000DF70470000D52B0008F3
:101A0000DFF804C000DF7047DF2B0008094C4FF0FF
:101A1000FF3529462068FFF793FF02460846102A43
:101A2000F7D1FFF7EDFF0028F3D0024608469047B4
:101A3000EFE7000010000020012806D0022805D0A2
:101A4000032804D0042804D102E003E002E001E00E
:101A500000E000BF00BF00BFFEE700BFFEE70000E0
:101A6000074801684FF0E0204161002181610721B2
:101A700001610448016841F07F41016040177047EF
:101A8000942C000820ED00E0704750E8001F31B1B1
:101A90000B6840E80032002AF7D108467047BFF3D0
:101AA0002F8FFAE710B568B161B10B3121F0030255
:101AB000016844680B1A1B1B934205D2084609684B
:101AC0000029F5D1002010BD210007D0211803689E
:101AD000C1E90032016001F1080010BD4260083028
:101AE00010BD000070B50D46002812D04FF6FF71F2
:101AF000084C884204D222680146104600F002FCDD
:101B000020684570044800F033F9BDE8704000F0EB
:101B1000CBBC70BD3C000020B40C00200F4810B5B9
:101B20000D4942680E480B680068934204D00A6071
:101B3000CB88421E1A448A808A8880B282420AD1A7
:101B400000200860054800F013F90146BDE8104088
:101B5000024800F0FBBB10BD50000020B40C002078
:101B60004C00002070B5194DE86800282CD0A88AD8
:101B7000401EA882002621E0A06838B1616841605B
:101B8000606810B1A16881606660A6600F48214658
:101B9000183800F0DBFBA08AA8826078042804D102
:101BA0000B49E08A09880844A08201206070E0683F
:101BB000E860E06808B10561E6602661A88A00284F
:101BC00002D1EC68002CD7D170BD0000CC0C0020F5
:101BD0004C00002070B504000FD00D4DA1780126F7
:101BE0002868827891420CD900F0CCFB28684670B6
:101BF0002046BDE8704000F057BC064800F0B8F839
:101C0000F7E766702146BDE87040024800F09EBBD1
:101C10003C000020B40C0020054A02EB810151F881
:101C2000041C002902D00A8B82430A8370470000FB
:101C30002409002010B50446008B084320836278F5
:101C4000618B062A18D0052A19D1084217D001EA5B
:101C50000002628388432083204600F0CDFB0120F0
:101C60006070628B0821204600F0BEFB2146BDE873
:101C70001040034800F06ABB31EA0002EAD010BD10
:101C8000B40C00200246154810B500EB810050F856
:101C9000044C002C21D0208B104320836278618B70
:101CA000062A17D0052A18D1084216D001EA0002E8
:101CB000628388432083204600F09EFB01206070F1
:101CC000628B0821204600F08FFB2046BDE81040C3
:101CD000FFF780BF31EA0002EBD010BD24090020DD
:101CE00070B503460C480D460468208B42B133EAB8
:101CF000000101D0062109E098432083022070BD35
:101D000010EA030101D06183F6E7052163832846C9
:101D1000FFF7E8FE012070BD3C000020814202D3A5
:101D200042688A4201D80120704702680A60BFF306
:101D30005F8F50E8003F0A689A42F6D140E80012EF
:101D4000002AF2D10020704768B161B10022083941
:101D500002E00246006830B18842FAD12AB1006838
:101D60001060002070470120704700214160F8E7B3
:101D70000146406842684A600B780022022B05D079
:101D8000012B03D0032B01D04260704743680BB195
:101D900099604260826070470649074B48681B683B
:101DA00082789B789A4202D142684A60704700204C
:101DB00070470000B40C00203C000020810700D0D8
:101DC0000020704770B5044600201546207001229F
:101DD0006270A17084F824106060A060E0602061EF
:101DE0002062A082E0822083608384F82500E08C5A
:101DF00018B90548FFF749FEE06229462046BDE8CC
:101E0000704000F01DB800003002002008B1082921
:101E100001D2012070470144091F002201600A60BD
:101E200042601046704700000348002101600349EA
:101E30000988C1807047000050000020882C0008ED
:101E400070B5C28C1C4D930802D12A88C2F38D0351
:101E5000C26A02EB8302540700D5121F4FF0807450
:101E600042E9021400242646B2F1400242F82460FE
:101E7000641C0E2CFAD3C46914628262016329685F
:101E8000C90014D5112B12D94FF0FF31103B11EBC3
:101E900053014FF0CC3305D042F8043C42F8083DE2
:101EA000491EF9D1C16A121F8A4200D91360C06A63
:101EB0000249016070BD0000842C0008A52E5AE282
:101EC000C1898089081A704701220270002242707D
:101ED0008270426002814281103982818908C18109
:101EE000704700002DE9F041044640680E464FF06F
:101EF000000804F10C05E8B36078012701283ED002
:101F0000022813D003285CD10846FFF7BEFD050068
:101F100057D02046FFF72CFF0446294600F05EFA12
:101F20006770204600F068FA214621E02046FFF75E
:101F30001FFF0646002100F051FA2189F06904EBE9
:101F400081010861D5E85F0F401C81B2C5E8501FD0
:101F50000028F7D12089401C80B22081E189884285
:101F600001D1A4F808807770304600F045FA314678
:101F7000174800E00CE0BDE8F04100F0E7B920466A
:101F8000FFF7F6FE04463246102100F02DFAC7E7AF
:101F9000A089E189884216D2208904EB800006617D
:101FA000D5E85F0F401C81B2C5E8501F0028F7D16B
:101FB0002089401C80B22081E189884201D1A4F8A7
:101FC0000880BDE8F081BDE8F0410320FFF734BD93
:101FD000B40C002070B50446808915460026C0B3B5
:101FE000608904EB8000006908606089401C80B251
:101FF0006081E189884200D16681606810B16078B3
:1020000002280BD014F10C04D4E85F0F401E81B2FB
:10201000C4E8501F0028F7D1002070BD2046FFF70C
:10202000A7FE0546002100F0D9F92189E86904EBF3
:10203000810108612089401C80B22081E1898842A9
:1020400000D12681284600F0D7F92846FFF7C2FDC7
:10205000E2E7FFE73DB10B48626801682AB120461C
:1020600000F074F908E0012070BD616001684E6005
:10207000006884600120607008212846FFF732FD67
:10208000F1E700003C000020002814D0411C13D0D0
:102090000C4A4FF6FE7190420CD800EB4002C2EBA6
:1020A000C0120948036803EBC202521EB2FBF3F0F0
:1020B000884204D9084670474FF6FF70704780B2D7
:1020C0007047000000093D00A42C00082DE9F041F4
:1020D0000446408820B1314DA1682A68914202D05F
:1020E000FF20BDE8F081401E0004000C608053D149
:1020F0002968086AA04209D1E068086208E0C2685D
:10210000A24202D1E268C26002E010460028F6D185
:1021100091F824000A6A06E053681BB19B78834259
:1021200000D91846D268002AF6D18870DFF870808E
:102130006168012611B32046FFF71AFE0746002109
:1021400000F04CF9384600F057F96680A760386A0D
:10215000E0603C622968D8F804008A78807882427E
:1021600001D3384616E00E4800F0F0F839460C4826
:1021700000F0ECF8286846707E700AE0D8F8041089
:102180008A782968824207D9054800F0DFF8286874
:1021900046700020FFF71EFD0020A2E73C00002053
:1021A000B40C002070B5184D0E46044641882868CE
:1021B00039B1A168814209D16088401C608000204B
:1021C00070BDA060016AE1600462F5E776B18A78CB
:1021D0008078824203D28870A06800F0DDF86068E1
:1021E00030B12046296800F0B1F808E0012070BD48
:1021F0002868606029680020486028688460092198
:102200003046FFF76FFCF1E73C00002070B51B483B
:10221000012102685170006800F0B4F8184D6C7824
:1022200018E000BF05EBC40148680278EAB1012A52
:1022300020D000F00DF9E878641C844200D100241D
:102240000F48801CD0E84F1F491EC9B2C0E8421F8A
:10225000002AF7D1A8780028E4D16C700948FFF76C
:1022600087FDBDE8704000F01FB9098989B2FFF70A
:10227000E1FCE0E78968FFF735FEDCE73C00002081
:10228000A0080020B40C00200548017811B10121FC
:102290004170704703494FF080500860704700005C
:1022A0004400002004ED00E0F0B4154DAB1CEE78C6
:1022B0004FEA0507D3E84F2FB24202D1BFF32F8F69
:1022C00011E0521CD4B2C3E8424F002AF2D100BF41
:1022D000D7E84F2F541CB44200D10024E4B2C7E821
:1022E000434F002BF4D1EB78934205D905EBC202A2
:1022F000C2E90101F0BC7047F0BC0220FFF79CBBB3
:10230000A0080020104A10B5D368ABB113469B8AD1
:1023100003E08CB12246A48A2344D4688B42F8D3CC
:10232000C460D0600261C46804B12061591A81821E
:10233000908A401A908210BD0024C460D060C91AEF
:1023400002619182848210BDCC0C002030B50278ED
:102350000023022A03D0012A01D0032A00D101233D
:102360008C7800E01046426812B19578A542F9D207
:102370004A6041601BB102B19160886030BD0020AD
:10238000FBE7000003494A6842600022826048601F
:1023900070470000B40C002010B5836804462BB9C8
:1023A000607801280ED1084B03E09B68187800285C
:1023B000FBD0204600F034F82146BDE81040184616
:1023C000FFF7C4BF10BD0000B40C002090F825102A
:1023D000806A09B1603070472030704710B50C46F4
:1023E000FFF7F4FF046010BD70B515460C46FFF70B
:1023F000EDFFC0E9004570BD10B5016900290ED0A0
:10240000C268CA60C36800223BB18B8A848A2344B5
:102410008B82C3681961C26000E08A82026110BDCC
:10242000816839B142684A604168002901D08068FA
:1024300088607047054906E04A68824202D14068D8
:102440004860704711460029F6D17047B40C00204F
:1024500010B5416881B1FFF78BFC0446FFF7CCFF54
:102460000120607001462046FFF7B8FF2146BDE815
:1024700010400348FFF76ABF4188491C418010BDE6
:10248000B40C002006480068D0E90A10814203D34A
:1024900000680449884202D00120FFF7CDBA704796
:1024A0003C000020A52E5AE20749022248604270F3
:1024B000064A1278002A05D006C98A4202D0C0789E
:1024C000FFF756B9704700003C000020580000207C
:1024D00070B5FFF725F900200446204A204902E0A4
:1024E00042F82040401C0B889842F9D31D48342202
:1024F00001881D48FFF7D2F81C48008880B240F0E0
:1025000000421B4801681B48FFF7C8F81A48082218
:1025100001881A480068FFF7C1F8194DFF20194AD1
:10252000E870EC8400212846FFF74CFC1648042193
:102530000170446015480170C460046184821448CD
:1025400015490560022068701248047044700978CB
:10255000C170BDE87040FFF767BC0000240900208F
:10256000802C0008AC2C0008B8000020842C000847
:10257000B02C000830020020D42C000818000020E5
:10258000800C00205B1A0008B40C0020CC0C00204A
:102590003C000020A0080020B82C00081B4810B503
:1025A000016841F47F01016000684FF07F4101EA5A
:1025B00000201649C0431439B0FA80F00968C0F110
:1025C0000800C1F30221814200D3481C0F49091FB2
:1025D0000B686FF08072824063F317020A60FFF7A6
:1025E0003FFA0B49002808600EDB00F1E021FF22D2
:1025F00081F8002400F01F02012191404009800071
:1026000000F1E020C0F8001110BD000020ED00E056
:10261000480000200C4810B5026801215170006884
:10262000FFF7B0FEFFF77AFA08480168491C01601D
:10263000FFF798FA00F0E0FA0548FFF799FBBDE8CC
:102640001040FFF731BF00003C0000204C0000208C
:10265000B40C0020002805D0810702D101780029A0
:1026600000D000207047000030B50B4C002362689A
:1026700005E095688D4204D813461268491B002A6C
:10268000F7D10260816012B19568691A91600BB14F
:10269000186030BD606030BD340000202DE9F0418D
:1026A0001E46174680460D4611F0FF0F00D14D1C07
:1026B0001848FFF7EAF9041E16D0280AE762E084FA
:1026C000E9B242462046E661FFF77CFB012512484D
:1026D000124905E000EB850252F8042C32B16D1C62
:1026E0000A889542F6D90020BDE8F081002DFAD085
:1026F00000EB850040F8044C0948E570007818B1FB
:1027000001212046FFF724F82046FFF763FA284608
:10271000EAE70000B800002024090020802C00080F
:10272000580000202DE9F05F584DDFF85891DFF890
:10273000588129684FF0010A002618B1CA78AB46C3
:10274000824243D14E70FDF784FD29688862FFF70D
:1027500099FE2868046A1FE06068C0B12046FFF750
:1027600007FB07460021FFF739FE3846FFF744FE16
:1027700087F801A039464648FFF7E8FDE168A4F86C
:1027800002A0A760386AE0603C620C4604E0E068A2
:102790006680A660E6600446002CDDD12868C27819
:1027A00008EB820141F8046CC16A3A48FFF7B6FAB7
:1027B0002868C66299F8001011B10021FEF7C8FF21
:1027C00035482968FFF7AAFA2E6056E03349098890
:1027D00088420CD808EB800858F8045C3DB12846C4
:1027E000FFF71EFE2846FFF707FE2C6A22E0FF20B7
:1027F000BDE8F09F6068C0B12046FFF7B9FA074610
:102800000021FFF7EBFD3846FFF7F6FD87F801A042
:1028100039461F48FFF79AFDE168A4F802A0A760B7
:10282000386AE0603C620C4604E0E0686680A660BE
:10283000E6600446002CDDD148F8046C1548E96ACE
:10284000FFF76CFAEE6299F8000018B100212846F3
:10285000FEF77EFF29461048FFF760FA0C48DBF8C8
:10286000001040688B7882789A4209D981F801A0DB
:102870000748DBF80010FFF769FD0020FFF7AAF911
:102880000020B5E758000020240900203C0000206B
:10289000B40C002030020020B8000020802C00087A
:1028A00070B5FFF779FA04000CD0074D0748296886
:1028B000FFF74CFD2968012048702046BDE87040B4
:1028C000FFF7F2BD70BD00003C000020B40C0020FA
:1028D00070B51A4D80B11A4A128890421FD8194A11
:1028E00002EB800050F8044CCCB1A17084F82410A5
:1028F0002868A04205D014E028688170286880F814
:102900002410114840688078884215D90E482968FB
:10291000FFF71CFD29680120487000200AE0FF2015
:1029200070BD2046FFF738FD6078012804D10648C5
:10293000FFF71EFAFFF74EF9002070BD3C000020A3
:10294000802C000824090020B40C002002480068F4
:10295000002800D0C07870473C00002010B5134C10
:10296000207860B91248400705D112480168104824
:10297000FFF74CFA08B1852010BDFFF7A9FD0E49FD
:10298000FF2009688870207858B900210B4800F0B2
:1029900041F80B49086000210A4800F0B9F80A49DB
:1029A0000860012020700020607010BD34000020FD
:1029B000F0060020B42C00083C000020CC2C0008BD
:1029C00010000020BC2C00080C00002070B50F4D3A
:1029D000687808B1002070BD0D4C206890F8241074
:1029E0000020FFF775FF2068C178FF2903D1816AB5
:1029F000203181F30988616811B96060002020608E
:102A0000FFF7CCFD01206870E4E7000034000020EF
:102A10003C00002010B5040005D0216819B16068A1
:102A200008B102780AB1002010BD8900103189B2C6
:102A3000FFF74AFA606810BD3EB504000D464FF03E
:102A4000800012D0217801290FD12846FFF71CFB06
:102A50000246204601A9FFF7BDFA012801D0102047
:102A600003E00DB1402000E00020DDE9011203B0D9
:102A700030BD70B50C46FFF7EDFD4FF0004108B1D9
:102A8000220C01D0084670BD058BC178A0B2FFF7BB
:102A9000C3F8284670BD70B50C46FFF7DBFD4FF05C
:102AA000004108B1220C01D0084670BD058BC178E9
:102AB000A0B2FFF7E7F8284670BD000070B50446E5
:102AC0000D46000C01D086201EE008462CB1FFF711
:102AD000DBFA0146A0B2012205E0FFF7D5FA014674
:102AE00000224FF6FF70FFF7FBF8022802D04DB12D
:102AF000402008E008200CB1214605E003490968A0
:102B0000498B01E000200021324670BD3C000020CE
:102B100070B50E4604002BD0206848B3B4F9040009
:102B200010F1030F24DB032822DCE16829B11148EE
:102B3000FEF7B8FF05001BD000E00025B4F9040043
:102B4000E168001D40EA012133462A462068FFF76C
:102B5000A5FD40B1084901EB8000084950F8040C7C
:102B6000826A516370BD1DB129460248FFF7ECF837
:102B7000002070BDF006002024090020D1190008B3
:102B800010B5FFF7E3FE002804D0034901EB8000F5
:102B900050F8040C10BD00002409002010B5FFF708
:102BA00059FD18B1C18C19B1C46A02E0802010BD72
:102BB0000024C078FFF7B6FDFF2806D01CB12146DF
:102BC0000348FFF7C1F8002010BD812010BD0000B0
:102BD000F006002010B5FFF763FE002010BD10B511
:102BE000FFF7ECF820B141690A680169104610BD91
:102BF0000020014610BD00002DE9F041134E74681D
:102C0000002C1CD0A068124F401E4FF00108A0609D
:102C100012E0254624687460002229463868FEF7D1
:102C2000C4FD10B10420FEF707FF6879012808D021
:102C300085F80480002C02D0A0680028E9D0BDE807
:102C4000F0812846E968FFF70FFDF3E73400002024
:102C5000100000204FF04070E1EE100A70470000B5
:102C60000116000800000000010000000000000044
:102C7000A1040008000000000100000000000000A6
:102C800007000000C800020105000100007A030AE5
:102C9000A80000003F9002000100000002000100B7
:102CA00050000400E803000000000000780100006C
:102CB000C0040000B0010000100000000D1A000860
:102CC0000200000001000000C80000000400000035
:102CD0004009002000000000F82C0008000000203F
:102CE0005C000000C4010008542D00085C000020B6
:102CF000EC120000E00100080000000000000000ED
:102D000000000000000000000000000000000000C3
:102D1000000000000000000085180008000000000E
:102D200001000000C80000000000000000000000DA
:102D30000000000000000000000000000000000093
:102D40000000000000000000000000000000000083
:042D5000000000007F
:04000005080003E507
:00000001FF
